:100000000C944B010C947C010C947C010C947C01AD
:100010000C947C010C947C010C947C010C947C016C
:100020000C947C010C947C010C947C010C947C015C
:100030000C947C010C947C010C947C010C947C014C
:100040000C947C010C947C010C947C010C947C013C
:100050000C947C010C947C010C947C010C94C60AD9
:100060000C947C010C94900A0C94660A0C947C010C
:100070000C947C010C947C010C947C010C947C010C
:100080000C947C010C947C010C947C010C947C01FC
:100090000C947C010C947C010C947C010C94100B4E
:1000A0000C947C010C947C010C947C010C947C01DC
:1000B0000C947C010C947C010C947C010C947C01CC
:1000C0000C947C010C947C010C947C010C947C01BC
:1000D0000C947C010C947C010C947C010C947C01AC
:1000E0000C947C010C94B4050C9417070C947104C7
:1000F0000C944E030C9454030C941D030C94800137
:100100000C9457020C941F020C9413030C94480493
:100110000C949E040C94340C0C944A030C945803D5
:100120000C9432030C9411020C946A040C9419037D
:100130000C9453030C94A4020C947F010C943C0384
:100140000C9447040C9440030C9457040C94BD0188
:100150000C942E030C9438030C9481010C9421030D
:100160000C9425030C94AE010C9446030C942803C4
:100170000C947E0100002200250028002B002E0098
:100180003100340002010000050108010B010000EC
:100190002100240027002A002D0030003300010137
:1001A0000000040107010A010000200023002600CE
:1001B00029002C002F00320000010000030106017D
:1001C00009010505050507050808080802020202DD
:1001D0000A0A0808040404040101010101010101E3
:1001E0000303030303030303040707070C0C0C0CAE
:1001F0000C0C0C0C02020202060606060606060697
:100200000B0B0B0B0B0B0B0B010210202008081023
:100210002040102040800201020108040201010276
:10022000040810204080804020100804020180044F
:1002300002018040201008040201080402010102AA
:1002400004081020408001020408102040800000B3
:100250000A0B02090C0D0E08070304010000000040
:10026000000000000000000000000000000000008E
:10027000000000000000000000001211100000004B
:10028000000000000000000000000000000000006E
:1002900000000000340C11241FBECFEFD1E2DEBFFE
:1002A000CDBF00E00CBF24E0ACE0B3E001C01D9284
:1002B000A039B207E1F713E0A0E0B2E0E8E4F5E22C
:1002C00000E00BBF02C007900D92AC30B107D9F728
:1002D00011E0CBE4D1E000E006C021970109802FB6
:1002E000FE010E946110CA34D10780E00807A9F717
:1002F0000E947D0C0C94A2120C94000008950895A5
:100300000895AF92BF92CF92DF92EF92FF920F9338
:100310001F93CF93DF936C017B018B01040F151F9B
:10032000EB015E01AE18BF08C017D10759F0699103
:10033000D601ED91FC910190F081E02DC601199557
:10034000892B79F7C501DF91CF911F910F91FF9014
:10035000EF90DF90CF90BF90AF900895FC01538D48
:10036000448D252F30E0842F90E0821B930B54178F
:1003700010F0CF96089501970895FC01918D828D1C
:10038000981761F0A28DAE0FBF2FB11D5D968C91B5
:10039000928D9F5F9F73928F90E008958FEF9FEFF4
:1003A00008952FB7F8948091D1039091D203A09132
:1003B000D303B091D4032FBF8093DE039093DF0368
:1003C000A093E003B093E10386ED93E00E94BD01AA
:1003D00097FF26C02FB7F8948091D1039091D20354
:1003E000A091D303B091D4032FBF4091DE0350916D
:1003F000DF036091E0037091E103841B950BA60B72
:10040000B70B4091DA035091DB036091DC037091EC
:10041000DD0384179507A607B707B0F28FEF9FEFAC
:100420000895FC01918D828D981731F0828DE80F2F
:10043000F11D858D90E008958FEF9FEF0895FC01E9
:10044000918D228D892F90E0805C9F4F821B9109B6
:100450008F739927089586ED93E00E941F0221E093
:10046000892B09F420E0822F0895FC01A48DA80FA8
:10047000B92FB11DA35ABF4F2C91848D90E00196E6
:100480008F739927848FA689B7892C93A089B18906
:100490008C91837080648C93938D848D981306C0A7
:1004A0000288F389E02D80818F7D80830895EF920B
:1004B000FF920F931F93CF93DF93EC0181E0888F1E
:1004C0009B8D8C8D98131AC0E889F989808185FFEE
:1004D00015C09FB7F894EE89FF896083E889F98990
:1004E00080818370806480839FBF81E090E0DF9192
:1004F000CF911F910F91FF90EF900895F62E0B8DE5
:1005000010E00F5F1F4F0F731127E02E8C8D8E119F
:100510000CC00FB607FCFACFE889F989808185FF06
:10052000F5CFCE010E943502F1CFEB8DEC0FFD2F00
:10053000F11DE35AFF4FF0829FB7F8940B8FEA89C1
:10054000FB8980818062CFCFCF93DF93EC01888DD0
:100550008823B9F0AA89BB89E889F9898C9185FD3E
:1005600003C0808186FD0DC00FB607FCF7CF8C91CC
:1005700085FFF2CF808185FFEDCFCE010E9435024D
:10058000E9CFDF91CF91089580E090E0892B29F0A9
:100590000E942B0281110E94000080E090E0892BD4
:1005A00049F080E090E0892B29F00E940000811141
:1005B0000E94000080E090E0892B49F080E090E00C
:1005C000892B29F00E94000081110E94000080E028
:1005D00090E0892B49F080E090E0892B29F00E947F
:1005E000000081110C94000008958150823108F0C0
:1005F0005AC0E82FF0E08827EF5FFC4F8F4F0C9434
:10060000611021032503130319031D03530328035A
:100610002E03320338033C03400346034A035303CB
:100620004E0354035803809180008F77809380009D
:100630000895809180008F7DF9CF80918000877F21
:10064000F5CF84B58F7784BD089584B58F7DFBCFBA
:100650008091B0008F778093B00008958091B000B2
:100660008F7DF9CF809190008F77809390000895CF
:10067000809190008F7DF9CF80919000877FF5CF9A
:100680008091A0008F778093A00008958091A000B2
:100690008F7DF9CF8091A000877FF5CF80912001D9
:1006A0008F77809320010895809120018F7DF9CF6D
:1006B00080912001877FF5CF1F93CF93DF93282F61
:1006C00030E0F901E25BFD4F8491F901E85FFD4FF5
:1006D000D491F901EE53FE4FC491CC23A9F0162F0B
:1006E00081110E94F502EC2FF0E0EE0FFF1FEC5895
:1006F000FE4FA591B4918FB7F894EC91111108C0F9
:10070000D095DE23DC938FBFDF91CF911F910895A9
:10071000DE2BF8CF3FB7F8948091BF039091C003D0
:10072000A091C103B091C20326B5A89B05C02F3F7D
:1007300019F00196A11DB11D3FBFBA2FA92F982F07
:100740008827BC01CD01620F711D811D911D42E002
:10075000660F771F881F991F4A95D1F708958F92CA
:100760009F92AF92BF92CF92DF92EF92FF924B0196
:100770005C010E948A036B017C010E948A036C1950
:100780007D098E099F09683E734081059105A8F394
:1007900021E0821A9108A108B10888EEC80E83E012
:1007A000D81EE11CF11C81149104A104B10429F7A5
:1007B000FF90EF90DF90CF90BF90AF909F908F9081
:1007C000089520917403260F3327331F21323105FA
:1007D000ECF420919803FC0190E080E0243069F073
:1007E00082E00895A09174032191AC014C5A5C4FB2
:1007F000A40FB52FB11D2C930196861798F3809105
:100800007403680F6093740380E0089581E0089595
:100810001092980381E080939A031092990361E00B
:1008200084E10E945C0361E085E10E945C03E9EBE6
:10083000F0E080818E7F808380818D7F808388E45B
:100840008093B80085E48093BC000895CF93DF9334
:1008500091E0909353038823B9F0C091B800D091F0
:10086000BA008091BC008A7B8093BC0060E084E188
:100870000E945C0360E085E10E945C030E94080422
:10088000D093BA00C093B800DF91CF910895089536
:10089000E091CA038091C903E81730F4F0E0E25D0B
:1008A000FC4F808190E008958FEF9FEF0895909125
:1008B000CA038091C9032FEF3FEF981748F4E92F3F
:1008C000F0E0E25DFC4F208130E09F5F9093CA032F
:1008D000C90108958091C9039091CA03891B990B9E
:1008E0000895CF92DF92EF92FF920F931F93CF93D1
:1008F000DF937C01CB018A0120912D03222389F013
:10090000EB016B01C40ED51ECC15DD0569F06991B4
:10091000D701ED91FC910190F081E02DC70119956F
:10092000F3CF642F0E94E103C801DF91CF911F91A3
:100930000F91FF90EF90DF90CF900895CF93DF93CA
:100940001F92CDB7DEB7698320912D032223F9F0E2
:100950002091C703203258F021E030E0FC013383BE
:10096000228390E080E00F90DF91CF9108958091F5
:10097000C803E82FF0E0E35FFC4F998190838F5F1D
:100980008093C8038093C70381E090E0ECCF61E0DF
:10099000CE0101960E94E103F7CFCF92DF92EF9252
:1009A000FF920F931F93CF93DF93FC01C48121E04B
:1009B00020932D03C0930C031092C8031092C70319
:1009C0008485682B83E794E00E949E04D091C7033E
:1009D000D13208F092C00E948A036B017C018091A1
:1009E0009803811165C082E08093980381E0809331
:1009F0009A038FEF809397031092BC03D093BB03AD
:100A0000ADE0B3E0EBE9F3E080E0D81385C01092ED
:100A1000BD038091BD03CC0FC82BC093BD03809153
:100A20009903813009F07CC0109299030E948A03D7
:100A30006B017C018091BD038093BB0080914F03CB
:100A400090915003A0915103B0915203892B8A2BAE
:100A50008B2B99F00E948A0300914F031091500351
:100A600020915103309152036C197D098E099F0921
:100A70000617170728073907E0F18091BC0083FDAE
:100A8000D9CF85EC8093BC000E948A036B017C0166
:100A900080919803823009F445C0809197038F3F7D
:100AA00061F180919703803241F18091970325C0D5
:100AB00080914F0390915003A0915103B091520344
:100AC000892B8A2B8B2B09F48ACF0E948A030091F1
:100AD0004F031091500320915103309152036C1930
:100AE0007D098E099F09061717072807390708F09F
:100AF00076CF80914E030E9426041092C803109274
:100B0000C70310922D03DF91CF911F910F91FF909A
:100B1000EF90DF90CF9008959D9191938F5F75CF67
:100B200085EEB0CF80914F0390915003A091510377
:100B3000B0915203892B8A2B8B2B09F4A9CF0E94E9
:100B40008A0300914F03109150032091510330917B
:100B500052036C197D098E099F090617170728078C
:100B6000390708F095CFC5CF90E080E00895FC01EB
:100B7000E058FF4F20812C7F208331962081277EF3
:100B8000206120838A579F4F20E83EE3DC011196C5
:100B90003C932E938081887F816080830895FB0140
:100BA00001900020E9F73197AF01461B570BDC019C
:100BB000ED91FC910280F381E02D19948F929F9228
:100BC000AF92BF920F931F93CF93DF93CDB7DEB752
:100BD000A1970FB6F894DEBF0FBECDBF19A2423069
:100BE00008F44AE08E010F5D1F4F842E912CB12C2A
:100BF000A12CA50194010E943F10E62FB901CA0162
:100C0000EA3044F5E05DD801EE938D01232B242BCF
:100C1000252B79F790E080E0109769F0FD010190B5
:100C20000020E9F73197AF014A1B5B0BBD018FE74D
:100C300094E00E948101A1960FB6F894DEBF0FBE2A
:100C4000CDBFDF91CF911F910F91BF90AF909F903B
:100C50008F900895E95CD7CFFC0124813581232B47
:100C600039F421E0FB018081882349F020E007C0AE
:100C7000808191810E94781221E0892BB9F7822F1F
:100C800008950F931F93CF938C01C62F0E94CD041C
:100C90006C2F6460C8010E94CD046C2F6B7FC8016B
:100CA0000E94CD0483EC90E00197F1F7CF911F9162
:100CB0000F9108950F931F93CF93DF938C01D62F3D
:100CC000C42F607F642B0E94410680E1D89FB00151
:100CD00011246C2BC801DF91CF911F910F910C94BF
:100CE0004106CF93DF9300D000D01F921F92CDB763
:100CF000DEB798E0E6E0F2E0DE01119601900D9299
:100D00009A95E1F790918704981708F48FEF90E097
:100D1000880F991F21E030E02C0F3D1F820F931F99
:100D2000FC016081606840E08FE794E028960FB690
:100D3000F894DEBF0FBECDBFDF91CF910C945A0661
:100D400040E061E08FE794E00E945A068BE39FE168
:100D50000197F1F780918804882319F080E00C94C2
:100D600071060895CF93DF93823028F09091840428
:100D70009860909384048093870462E370E080E03D
:100D800090E00E94AF0360918B048FE794E00E9493
:100D9000CD0468EE73E080E090E00E94AF0360E372
:100DA0008FE794E00E944106CBE4D6E4CE010197A0
:100DB000F1F760E38FE794E00E9441062197F1F795
:100DC00060E38FE794E00E94410683E592E001979B
:100DD000F1F760E28FE794E00E944106609184049D
:100DE000606240E08FE794E00E945A0684E08093BE
:100DF000850440E06CE08FE794E00E945A060E9470
:100E0000A00682E08093860440E066E08FE794E0ED
:100E10000E945A0640E062E08FE794E00E945A0682
:100E20008BE39FE10197F1F7DF91CF91089541E0C6
:100E30000E945A0681E090E00895CF92DF92EF92EF
:100E4000FF926B017C0141E06DE28FE794E00E942C
:100E50005A0666277727CB016C197D098E099F09F1
:100E60004AE00E94DE050196FF90EF90DF90CF9060
:100E700008950F931F93CF93DF938C01EB01FC0137
:100E8000808191810097E1F0688179816115710518
:100E9000A9F0428153812C813D814217530770F0A4
:100EA0000E9481128C819D81F801958384831D822B
:100EB0001C82DF91CF911F910F9108950E9405111F
:100EC00088819981F801918380838A819B819383B2
:100ED00082838C819D8195838483198218821B82F1
:100EE0001A82E5CFCF93DF93EC0188819981009737
:100EF00011F00E940511198218821D821C821B822A
:100F00001A82DF91CF910895FC0180819181009731
:100F100011F00C94051108950F931F93CF93DF9355
:100F2000EC0188819981009759F02A813B8126172D
:100F3000370730F081E0DF91CF911F910F91089535
:100F40008B016F5F7F4F0E948E11009759F099833C
:100F500088831B830A832C813D81232B59F7FC0155
:100F60001082E8CF80E0E7CFEF92FF920F931F93BC
:100F7000CF93DF93EC017B018A01BA010E948C07B9
:100F800081110BC0CE010E947207CE01DF91CF917B
:100F90001F910F91FF90EF9008951D830C83B7016F
:100FA000888199810E948112F0CFFC011182108208
:100FB000138212821582148250E040E064EB72E0EA
:100FC0000C94B407AF92BF92CF92DF92EF92FF9250
:100FD0000F931F93CF93DF937C016B015A0189011B
:100FE0002417350720F48B2D5901042F182FC70122
:100FF0000E94D507D6011496CD91DC91AC16BD06A2
:1010000020F50C171D0708F4E801D601ED91FC91BD
:101010001197EC0FFD1F108110826D917C916A0D6C
:101020007B1D61157105E9F0FB0101900020E9F7D6
:101030003197AF01461B570BC7010E94B407F60159
:1010400080819181C80FD91F1883C701DF91CF918B
:101050001F910F91FF90EF90DF90CF90BF90AF90D6
:101060000895C7010E947207EACFCF93DF93EC0186
:10107000FB018617970749F0608171816115710541
:1010800041F0448155810E94B407CE01DF91CF9198
:1010900008950E947207F9CFFC0111821082138219
:1010A0001282158214820C9435084F925F926F92CF
:1010B0007F928F929F92AF92BF92CF92DF92EF92E8
:1010C000FF920F931F93CF93DF93CDB7DEB768974F
:1010D0000FB6F894DEBF0FBECDBF5C016B018C0173
:1010E0007C0186ECE80EF11CC8010E94D5070A5F5E
:1010F0001F4F0E151F05C1F7F70111821082B601AF
:101100008E010F5F1F4FC8010E944C0849815A8110
:101110006D817E8130E020E090E080E0621773070F
:1011200089F0FA01E20FF31F4115510521F41092E5
:10113000D503E5EDF3E0E081EC3209F401962F5F91
:101140003F4FECCF0196F70191838083C8010E9445
:101150008407F7018081918182309105FCF481E060
:1011600090E091838083B601C5010E94350868969E
:101170000FB6F894DEBF0FBECDBFDF91CF911F91A8
:101180000F91FF90EF90DF90CF90BF90AF909F9026
:101190008F907F906F905F904F900895829724F08A
:1011A00081E290E091838083F70180819181829731
:1011B00020F081E290E0918380831C8A1B8A1E8A42
:1011C0001D8A188E1F8A8CE289831A82F801019089
:1011D0000020E9F73197AF01401B510BB801CE0158
:1011E00043960E94B407CE010D960E94D507B60122
:1011F000CE0107960E944C08912C812C86E0582E37
:101200008B859C85892B09F4A3C0CF80D8846B89FA
:101210007C89C6010E948812009709F48CC08C1941
:101220009D0997FD88C0F7018081918101978816FB
:1012300099060CF080C0D12CC12C36018B859C8581
:10124000C816D906E8F6FFEFCF1ADF0A9601A30108
:10125000BE01695F7F4FC8010E94E2072D813E8178
:101260008F89988D2817390711F589819A816B89A3
:101270007C89009759F06115710509F056C0232B40
:1012800009F456C0FC01808190E00DC06115710524
:1012900009F44EC0232B09F44BC0FB01808190E080
:1012A00091958195910944244394892B09F0412C0F
:1012B000C8010E948407442009F4BFCF930150E085
:1012C00040E0BE01695F7F4FC8010E94E207B8019C
:1012D000CE010D960E943907C8010E9484072B8514
:1012E0003C85A601BE01695F7F4FC8010E94E207ED
:1012F000B801CE0107960E943907C8010E948407F1
:1013000089899A89892B09F47BCF589CC001599C03
:10131000900D1124BE01635F7F4F8A0D9B1D0E94BB
:101320003508FFEF8F1A9F0A6BCF0E947812BBCF50
:1013300044244394BDCF26E0289DC001299D900DF3
:101340001124BE01695F7F4F8A0D9B1D0E943508E5
:10135000CE0107960E948407CE010D960E94840755
:10136000CE0143960E94840702CF85ED8093BC0096
:1013700080914F0390915003A0915103B09152037B
:101380000796A11DB11D23E0B695A7959795879562
:101390002A95D1F72091BC0024FD03C01092980338
:1013A000089540914F035091500360915103709103
:1013B0005203452B462B472B69F30097A105B10536
:1013C00041F025E32A95F1F700000197A109B10941
:1013D000E1CF80914E030C9426048F929F92AF929E
:1013E000BF92CF92DF92EF92FF92CF93DF93EC0107
:1013F0000E941A10C82ECE0101960E941A10D12CFC
:10140000F12CE12CFC2CEE24DD24CC2490E0B0E087
:10141000A0E0DC019927882746015701880E991E14
:10142000AA1EBB1ECE0102960E941A1090E0B0E0E8
:10143000A0E0CC24D82EE92EFA2EC80CD91CEA1C28
:10144000FB1CCE0103960E941A10A7019601280FDB
:10145000311D411D511DCA01B901DF91CF91FF908E
:10146000EF90DF90CF90BF90AF909F908F900895B6
:10147000CF92DF92EF92FF92CF93DF93EC016A015C
:101480007B016F2D772788279927CE010E94221094
:10149000B701992777FD9095892FCE0101960E947B
:1014A00022109927F7FC9A958F2D7E2D6D2DCE0158
:1014B00002960E9422106C2DCE010396DF91CF91EF
:1014C000FF90EF90DF90CF900C9422101F920F921C
:1014D0000FB60F9211240BB60F922F933F934F9399
:1014E0005F936F937F938F939F93AF93BF93EF938C
:1014F000FF9386ED93E00E943502FF91EF91BF913B
:10150000AF919F918F917F916F915F914F913F919B
:101510002F910F900BBE0F900FBE0F901F9018953C
:101520001F920F920FB60F9211240BB60F922F93AA
:101530008F939F93EF93FF93E091E603F091E7037E
:101540008081E091EC03F091ED0382FD1DC090815C
:101550008091EF038F5F8F732091F003821741F02A
:10156000E091EF03F0E0EA52FC4F958F8093EF0398
:10157000FF91EF919F918F912F910F900BBE0F9044
:101580000FBE0F901F9018958081F2CF1F920F927F
:101590000FB60F9211242F933F938F939F93AF9386
:1015A000BF938091D1039091D203A091D303B091C6
:1015B000D4033091BE0323E0230F2D3758F5019655
:1015C000A11DB11D2093BE038093D1039093D2033C
:1015D000A093D303B093D4038091BF039091C00331
:1015E000A091C103B091C2030196A11DB11D8093CA
:1015F000BF039093C003A093C103B093C203BF91F4
:10160000AF919F918F913F912F910F900FBE0F90AF
:101610001F90189526E8230F0296A11DB11DD2CF69
:101620001F920F920FB60F9211240BB60F922F93A9
:101630003F934F935F936F937F938F939F93AF935A
:10164000BF93EF93FF938091B900887F803609F4B0
:101650004DC008F040C0883209F4A9C028F5803197
:1016600009F49DC0C8F4882309F4FBC0883009F44C
:1016700096C0FF91EF91BF91AF919F918F917F9114
:101680006F915F914F913F912F910F900BBE0F90F3
:101690000FBE0F901F901895883109F488C08032D2
:1016A00041F78093970314C0803409F49DC040F43F
:1016B0008033B9F38833E9F68093970385ECB0C0A3
:1016C000803509F485C0883509F496C0883489F6D8
:1016D0000E94B509CECF883909F48CC038F5883717
:1016E00029F050F4883611F0803719F683E08093A2
:1016F00098031092960357C0883809F47BC080394C
:1017000019F0803809F0B5CF80919603803208F047
:1017100071C0E091960381E08E0F809396038091D3
:10172000BB00F0E0EA58FC4F80833DC0803B39F0BD
:10173000E0F4803A09F479C0883A09F09ACF84E05D
:10174000809398031092750310927403E091C5037F
:10175000F091C60319958091740381110FC081E047
:10176000809374031092540309C0803C09F4A6CFFF
:10177000883C09F4A3CF883B09F07BCFE091750347
:1017800081E08E0F80937503F0E0EC5AFC4F80816E
:101790008093BB00909175038091740329C0809160
:1017A000BD038093BB0085EC8093BC0062CF909119
:1017B000BC038091BB03981758F5E091BC0381E00E
:1017C0008E0F8093BC03F0E0E556FC4F8081E9CF9B
:1017D000E091BC0381E08E0F8093BC038091BB003D
:1017E000F0E0E556FC4F80839091BC038091BB03F1
:1017F0009817C8F285E8D8CFE091BC0381E08E0F3E
:101800008093BC038091BB00F0E0E556FC4F8083E1
:1018100080919A0381115CCF81E08093990384EADF
:101820008093BC001092980324CF85EC8093BC0079
:101830001092980380919603803230F4E0919603E1
:10184000F0E0EA58FC4F10826091960370E0E0915E
:10185000C303F091C40386E793E0199510929603B1
:1018600008CF1092970334CFE6EDF3E01382128293
:1018700088EE93E0A0E0B0E084839583A683B783ED
:1018800022E232E03183208325EC30E03587248763
:1018900024EC30E03787268720EC30E0318B208B3A
:1018A00021EC30E0338B228B22EC30E0358B248B23
:1018B00026EC30E0378B268B118E128E138E148E11
:1018C000E3E7F4E01382128284839583A683B783CF
:1018D00084E392E091838083EFE7F4E01382128245
:1018E00086E492E09183808311868FE3848380E194
:1018F000828784E0838714860895CF93DF93CDB7E2
:10190000DEB762970FB6F894DEBF0FBECDBF7894F6
:1019100084B5826084BD84B5816084BD85B58260F4
:1019200085BD85B5816085BD80916E0081608093A5
:101930006E0010928100809181008260809381000E
:10194000809181008160809381008091800081601E
:10195000809380008091B10084608093B100809179
:10196000B00081608093B00080919100826080938C
:10197000910080919100816080939100809190000E
:101980008160809390008091A10082608093A1008B
:101990008091A10081608093A1008091A00081606E
:1019A0008093A00080912101826080932101809129
:1019B00021018160809321018091200181608093C9
:1019C000200180917A00846080937A0080917A006F
:1019D000826080937A0080917A00816080937A009F
:1019E00080917A00806880937A001092C100E09123
:1019F000E603F091E70382E08083E091E203F09157
:101A0000E3031082E091E403F091E50380E1808339
:101A10001092EE03E091EA03F091EB0386E08083FD
:101A2000E091E803F091E903808180618083E09197
:101A3000E803F091E903808188608083E091E80306
:101A4000F091E903808180688083E091E803F09160
:101A5000E90380818F7D808380E197E2A0E0B0E0A0
:101A60008093DA039093DB03A093DC03B093DD0350
:101A700090E080E00E94B7058091B0008C7F81608B
:101A80008093B0008091B10088608093B10010E035
:101A90008EE390E0812C74E2972E74EFA72EB12C88
:101AA0001F5FE12FF0E0EE0FFF1FE25FFD4FE080D0
:101AB000F180E816F906A0F39701A8EEB3E00E94C2
:101AC00030109B01AC01C501B4010E943F10C70159
:101AD0002F3F310509F020F72093B3008091B1002A
:101AE000887F1770182B1093B10080E190E00E945E
:101AF000B70580E290E00E94B70580EA90E00E947E
:101B0000B7051092CA031092C9031092C80310922D
:101B1000C7030E9408048EE791E09093C603809368
:101B2000C5038FE791E09093C4038093C3031092A1
:101B3000840480918A040E94B20688E080938B041A
:101B400060E08FE794E00E94CD0482E00E94B2063C
:101B500080E00E9471066EE472E08FE794E00E94DC
:101B6000CF0581E00E9471066AE572E08FE794E09C
:101B70000E94CF05EDE3F2E0249157EF252E51E0CE
:101B8000352EF1018491882399F090E0880F991FF8
:101B9000FC01E257FE4FA591B491FC01EC58FE4FB9
:101BA000859194918FB7F8949C91292B2C938FBF9A
:101BB00030EAA32E3FE0B32E86ED93E00E941F0291
:101BC000892B09F452C0CE010D960E94D5070E94C0
:101BD000D10197FD1EC083329105D9F089831A8205
:101BE00009891A890F5F1F4FB801CE010D960E9417
:101BF0008C07882361F32D853E8589899A89BE01EA
:101C00006F5F7F4F820F931F0E9481121A8B098B87
:101C1000DECF66E872E0CE010D960E942C06882386
:101C200009F482C00E94A00661E972E08FE794E0A7
:101C30000E94CF0568EB7BE080E090E00E94AF035C
:101C40000E94A00665E672E08FE794E00E94CF054F
:101C5000F1E0F093CE0366E772E086ED93E00E9438
:101C6000CF05CE010D960E948407E3E8F2E084914F
:101C7000EDE3F2E01491F1010491002309F49BC11A
:101C800081110E94F502E02FF0E0EE0FFF1FE855F2
:101C9000FE4FA591B4918C91182309F48CC184EA6C
:101CA0009FE00E94ED096B017C010E94A006F7FEF7
:101CB0006EC1C701B6010E941D07FFEFCF1ADF0AF0
:101CC000EF0AFF0A2CE02C9DC0012D9D900D1124E0
:101CD0008056904F9093D0038093CF0368EE73E0CB
:101CE00080E090E00E94AF0308EA1FE08091CF03FC
:101CF0009091D003081719070CF055C1C8010E9434
:101D0000ED096B017C010E94A006F7FE46C1C701E8
:101D1000B6010E941D0768EE73E080E090E00E942B
:101D2000AF030C5F1F4FE2CF63E872E0CE010D9668
:101D30000E942C06882311F10E94A0066EE872E032
:101D40008FE794E00E94CF0568EB7BE080E090E0B5
:101D50000E94AF030E94A0066EE472E08FE794E059
:101D60000E94CF0581E00E9471066AE572E08FE76C
:101D700094E00E94CF051092CE0373CFBE01635F43
:101D80007F4FCE0107960E944C08BE01695F7F4FCE
:101D9000CE0101960E944C0888EC90E00E946910E8
:101DA0007C01BE016F5F7F4F0E945508CE010196F6
:101DB0000E948407670126ECC20ED11CF6018080C8
:101DC000918010E000E0081519050CF0D7C0F6016D
:101DD00080819181081719070CF080C0F6E0F09F10
:101DE000B001F19F700D11246E0D7F1DCE01019683
:101DF0000E944C086BE972E0CE0101960E942C060D
:101E00008823B9F08091CE03882399F0B092D00353
:101E1000A092CF031092CD031092CC0321E0209327
:101E2000CB030E94A00665EA72E08FE794E00E946F
:101E3000CF0565EB72E0CE0101960E942C06882347
:101E400049F18091CE03882329F11092CB0310929F
:101E5000CD031092CC030E94A0066DEB72E08FE7D9
:101E600094E00E94CF0568EB7BE080E090E00E9468
:101E7000AF030E94A00665ED72E08FE794E00E9438
:101E8000CF0581E00E94710667EE72E08FE794E073
:101E90000E94CF058091CB03882309F468C080910C
:101EA000CE03882309F463C089819A81412C512C87
:101EB0003201009721F00E94DE0F2B013C0180913E
:101EC000CC039091CD03892B41F5F99B0CC061E0C7
:101ED00070E080E090E00E94AF03F7CFCE01019662
:101EE0000E94D50787CFB301A2018091CF039091C3
:101EF000D0030E94380AC201880F991F840D951DD6
:101F00009093CD038093CC038091CF039091D00325
:101F100004969093D0038093CF038091CC0390914B
:101F2000CD03181619061CF5F99B07C061E070E097
:101F300080E090E00E94AF03F7CFB301A20180914F
:101F4000CF039091D0030E94380A8091CC039091E6
:101F5000CD0301979093CD038093CC038091CF0361
:101F60009091D00304969093D0038093CF03CE0139
:101F700001960E9484070F5F1F4F25CF1092CD035B
:101F80001092CC03CE0107960E9484076ACE4AE0E5
:101F9000C701B6010E94DE0590CE4AE0C701B60136
:101FA0000E94DE05B8CE0E94A00669EF72E08FE7BE
:101FB00094E00E94CF050E94C402FECD1F93FC0155
:101FC00099278827BC01E89411911032E9F3193060
:101FD00010F01E30C8F31B3251F01D3249F46894E2
:101FE00006C00E940510610F711D811D911D119188
:101FF00010531A30B0F33EF490958095709561952A
:102000007F4F8F4F9F4F1F910895592F482F372F84
:10201000262F660F771F881F991F660F771F881F4F
:10202000991F620F731F841F951F660F771F881FEC
:10203000991F0895F999FECF92BD81BDF89A99270D
:1020400080B50895262FF999FECF1FBA92BD81BDA4
:1020500020BD0FB6F894FA9AF99A0FBE019608952A
:10206000A29FB001B39FC001A39F700D811D1124D9
:10207000911DB29F700D811D1124911D0895A1E243
:102080001A2EAA1BBB1BFD010DC0AA1FBB1FEE1FF2
:10209000FF1FA217B307E407F50720F0A21BB30B3D
:1020A000E40BF50B661F771F881F991F1A9469F7B9
:1020B00060957095809590959B01AC01BD01CF0115
:1020C0000895EE0FFF1F881F8BBF0790F691E02D3C
:1020D00019940F931F93CF93DF938230910510F4DF
:1020E00082E090E0E0918E04F0918F0430E020E0F7
:1020F000B0E0A0E0309799F42115310509F44AC009
:10210000281B390B24303105D8F58A819B81611554
:10211000710589F1FB0193838283FE0111C0408127
:1021200051810281138148175907E0F04817590778
:1021300099F4109761F012960C93129713961C93D2
:102140003296CF01DF91CF911F910F9108950093A7
:102150008E0410938F04F4CF2115310551F04217EE
:10216000530738F0A901DB019A01BD01DF01F80135
:10217000C1CFEF01F9CF90938F0480938E04CDCF20
:10218000FE01E20FF31F81939193225031093983AD
:102190002883D7CF20918C0430918D04232B41F4D8
:1021A000209102023091030230938D0420938C041D
:1021B00020910002309101022115310541F42DB723
:1021C0003EB74091040250910502241B350BE0916B
:1021D0008C04F0918D04E217F307A0F42E1B3F0B43
:1021E0002817390778F0AC014E5F5F4F2417350789
:1021F00048F04E0F5F1F50938D0440938C048193E1
:1022000091939FCFF0E0E0E09CCFCF93DF930097D6
:10221000E9F0FC01329713821282A0918E04B091F2
:102220008F04ED0130E020E01097A1F4208131818E
:10223000820F931F20918C0430918D042817390749
:1022400009F061C0F0938D04E0938C04DF91CF918D
:102250000895EA01CE17DF07E8F54A815B819E0108
:1022600041155105B1F7E901FB83EA834991599181
:10227000C40FD51FEC17FD0761F480819181029690
:10228000840F951FE90199838883828193819B83C1
:102290008A83F0E0E0E012968D919C91139700976D
:1022A000B9F52D913C911197CD010296820F931FA4
:1022B00020918C0430918D042817390739F6309716
:1022C00051F510928F0410928E04B0938D04A09358
:1022D0008C04BCCFD383C28340815181840F951F6E
:1022E000C817D90761F44E5F5F4F88819981480F05
:1022F000591F518340838A819B8193838283211557
:10230000310509F0B0CFF0938F04E0938E049ECF97
:10231000FD01DC01C0CF13821282D7CF4F925F92B2
:102320006F927F928F929F92AF92BF92CF92DF92E5
:10233000EF92FF920F931F93CF93DF938C0100973F
:1023400099F4CB01DF91CF911F910F91FF90EF9006
:10235000DF90CF90BF90AF909F908F907F906F90C5
:102360005F904F900C946910FC01E60FF71F9C01E1
:1023700022503109E217F30708F4AEC0D901CD911C
:10238000DC911197C617D70720F1C530D10578F039
:10239000CE0104978617970750F0C61BD70B2297DC
:1023A000C193D1936D937C93CF010E940511C80115
:1023B000DF91CF911F910F91FF90EF90DF90CF9021
:1023C000BF90AF909F908F907F906F905F904F9055
:1023D00008955B01AC1ABD0A4C018C0E9D1EA091A4
:1023E0008E04B0918F04512C412CF12CE12C1097CC
:1023F00031F580918C0490918D048815990509F030
:102400005CC04616570608F058C0809100029091B3
:102410000102009741F48DB79EB74091040250919C
:102420000502841B950BE817F90708F055C0F093D7
:102430008D04E0938C04F90171836083B8CF8D9192
:102440009C91119712966C90129713967C9013970B
:10245000A815B90559F56C0142E0C40ED11CCA1487
:10246000DB0420F1AC014A195B09DA0112961597D9
:1024700080F06282738251834083D9016D937C9393
:10248000E114F10471F0D7011396FC93EE931297C7
:102490008ECF22968C0F9D1FF90191838083F301CB
:1024A000EFCFF0938F04E0938E0481CF4816590646
:1024B00008F42C017D01D3019ACFCB010E94691051
:1024C0007C01009749F0AE01B8010E946F12C8016B
:1024D0000E94051187016BCF10E000E068CFFB017F
:1024E000DC0102C001900D9241505040D8F7089590
:1024F000FB01DC018D91019080190110D9F3990B3A
:102500000895FB01DC0101900D920020E1F7089590
:10251000FB0151915523A9F0BF01DC014D914517F5
:102520004111E1F759F4CD010190002049F04D919E
:1025300040154111C9F3FB014111EFCF81E090E05B
:0825400001970895F894FFCF04
:1025480000009004800000004000140054000000C7
:102558000100080020004000800000010004000085
:10256800000057028101AE01A4021F02BD01110241
:10257800000000009E047104B40547046A0457046F
:1025880048040000000017078101B4058001576165
:102598006974696E6720666F7200636F6E6E65633B
:1025A80074696F6E0057616974696E6720666F722F
:1025B800206461746100436F6E6669726D6174694D
:1025C8006F6E00444953434F4E4E454354004449AF
:1025D80053434F4E4E4543544544005374617274FF
:1025E8004C6F6164004C6F6164696E67206461744C
:1025F800612E2E2E00456E644C6F61640044617438
:1026080061206C6F616465642073756363657366CC
:10261800756C6C790057616974696E6720666F72B2
:10262800207374617274006F722072656C6F6164DC
:10263800696E672064617461005072696E74696EB6
:0C264800672066696E69736865640000B5
:00000001FF
